:100000000C9434000C9451000C9451000C94510049
:100010000C9451000C9451000C9451000C9451001C
:100020000C9451000C9451000C9451000C9451000C
:100030000C9451000C9451000C9451000C945100FC
:100040000C9451000C9451000C9451000C945100EC
:100050000C9451000C9451000C9451000C945100DC
:100060000C9451000C94510011241FBECFEFD8E026
:10007000DEBFCDBF11E0A0E0B1E0EEEAF7E002C0E4
:1000800005900D92A032B107D9F711E0A0E2B1E0DE
:1000900001C01D92A532B107E1F70E9496000C94B1
:1000A000D5030C940000EAE7F0E08081866080834D
:1000B000ACE7B0E08C9180648C9380818068808311
:1000C000089590917C00982B90937C0080917A0009
:1000D000806480937A0080917A0086FDFCCF209125
:1000E000780030917900C90108951092C50087E623
:1000F0008093C40088E18093C10086E08093C200B1
:100100000895982F8091C00085FFFCCF9093C60082
:100110000895FC0107C08091C00085FFFCCF90933B
:10012000C600319690819923B1F70895DF92EF923E
:10013000FF920F931F93DF93CF93CDB7DEB7A897AE
:100140000FB6F894DEBF0FBECDBF0E9453001092D1
:10015000C50087E68093C40088E18093C10086E0F3
:100160008093C20080E091E00E9489007E010894A3
:10017000E11CF11C0EE011E087EFD82E80E00E9418
:100180006100909321018093200100D000D000D025
:10019000EDB7FEB73196ADB7BEB71296FC92EE92B0
:1001A000119713830283958384830E94FD00D0926C
:1001B000220120912001909121019093230120930D
:1001C00024014DB75EB74A5F5F4F0FB6F8945EBF2C
:1001D0000FBE4DBF8091C00085FFFCCFD092C600FE
:1001E0008091C00085FFFCCF9093C6008091C00035
:1001F00085FFFCCF2093C600C1CFAEE0B0E0E3E0C6
:10020000F1E00C94AC030D891E8986E08C831A837F
:1002100009838FEF9FE79E838D839E01275E3F4F6B
:10022000CE0101966F89788DA9010E9421012F814D
:100230003885020F131FF80110822E96E4E00C940B
:10024000C803ABE0B0E0E7E2F1E00C949E033C01B0
:100250002B015A01FC0117821682838181FD03C0A4
:100260006FEF7FEFC6C19AE0892E1E010894211C12
:10027000311CF3012381F20123FD859123FF81913C
:100280002F01882309F4B2C1853239F423FD859109
:1002900023FF81912F01853229F490E0B3010E9460
:1002A0001403E7CF982FFF24EE249924FFE1FF15D4
:1002B000D0F09B3269F09C3228F4903259F093329E
:1002C00091F40EC09D3249F0903369F441E024C0AE
:1002D00052E0F52A84E0F82A28C098E0F92A25C0DF
:1002E000E0E1FE2A22C0F7FC29C0892F80538A3022
:1002F00070F4F6FE05C0989C902C1124980E15C041
:10030000E89CE02C1124E80EF0E2FF2A0EC09E3299
:1003100029F4F6FC6BC140E4F42A07C09C3619F4BA
:1003200050E8F52A02C0983649F4F20123FD959170
:1003300023FF91912F01992309F0B8CF892F85547C
:10034000833018F08052833038F444E050E0A40E3B
:10035000B51E5FE359830FC0933631F0933779F0C0
:10036000933509F056C020C0F5018081898342E0B1
:1003700050E0A40EB51E610101E010E012C0F501CD
:10038000C080D180F6FC03C06FEF7FEF02C0692D03
:1003900070E042E050E0A40EB51EC6010E940903C1
:1003A0008C015FE7F52214C0F501C080D180F6FC16
:1003B00003C06FEF7FEF02C0692D70E042E050E0B4
:1003C000A40EB51EC6010E94FE028C0150E8F52A5B
:1003D000F3FE07C01AC080E290E0B3010E9414034C
:1003E000EA948E2D90E008171907A8F30EC0F601C5
:1003F000F7FC8591F7FE81916F0190E0B3010E94B7
:100400001403E110EA94015010400115110579F729
:10041000EAC0943611F0993669F5F7FE08C0F50187
:10042000208131814281538184E090E00AC0F5014E
:10043000808191819C01442737FD4095542F82E0B3
:1004400090E0A80EB91E9FE6F92257FF09C050950B
:100450004095309521953F4F4F4F5F4FE0E8FE2A82
:10046000CA01B901A1012AE030E00E944003D82E60
:10047000D21840C0953729F41F2D1F7E2AE030E0A6
:100480001DC01F2D197F9F3661F0903720F49835DD
:1004900009F0ACC00FC0903739F0983709F0A6C00A
:1004A00004C028E030E00AC0106114FD146020E1AF
:1004B00030E004C014FD166020E132E017FF08C0F0
:1004C000F501608171818281938144E050E008C030
:1004D000F50180819181BC0180E090E042E050E034
:1004E000A40EB51EA1010E944003D82ED2188FE79A
:1004F000F82EF122F6FE0BC05EEFF522D91438F487
:10050000F4FE07C0F2FC05C08FEEF82202C01D2DDC
:1005100001C0192DF4FE0DC0FE01ED0DF11D80810D
:10052000803319F499EEF92208C01F5FF2FE05C06E
:1005300003C08F2D867809F01F5F0F2DF3FC14C0C8
:10054000F0FE0FC01E1510F09D2C0BC09D2C9E0CB4
:10055000911A1E2D06C080E290E0B3010E941403A0
:100560001F5F1E15C0F304C01E1510F4E11A01C070
:10057000EE2404FF0FC080E390E0B3010E94140357
:1005800002FF1DC001FD03C088E790E00EC088E5B2
:1005900090E00BC0802F867891F001FF02C08BE2C3
:1005A00001C080E2F7FC8DE290E0B3010E941403E9
:1005B00006C080E390E0B3010E9414039A94D9141A
:1005C000C0F3DA94F101ED0DF11D808190E0B301EB
:1005D0000E941403DD20A9F706C080E290E0B30179
:1005E0000E941403EA94EE20C1F743CEF301668122
:1005F0007781CB012B96E2E10C94BA03FC010590C4
:10060000615070400110D8F7809590958E0F9F1F14
:100610000895FC016150704001900110D8F7809559
:1006200090958E0F9F1F08950F931F93CF93DF9385
:100630008C01EB018B8181FF1BC082FF0DC02E81DD
:100640003F818C819D812817390764F4E881F98105
:100650000193F983E88306C0E885F985802F099521
:10066000892B31F48E819F8101969F838E8302C0F6
:100670000FEF1FEFC801DF91CF911F910F910895E8
:10068000FA01AA27283051F1203181F1E8946F93C3
:100690006E7F6E5F7F4F8F4F9F4FAF4FB1E03ED069
:1006A000B4E03CD0670F781F891F9A1FA11D680F07
:1006B000791F8A1F911DA11D6A0F711D811D911D3A
:1006C000A11D20D009F468943F912AE0269F1124AF
:1006D0003019305D3193DEF6CF010895462F477013
:1006E000405D4193B3E00FD0C9F7F6CF462F4F706E
:1006F000405D4A3318F0495D31FD4052419302D0CC
:10070000A9F7EACFB4E0A695979587957795679571
:10071000BA95C9F700976105710508959B01AC0171
:100720000A2E06945795479537952795BA95C9F798
:10073000620F731F841F951FA01D08952F923F9273
:100740004F925F926F927F928F929F92AF92BF92E1
:10075000CF92DF92EF92FF920F931F93CF93DF938D
:10076000CDB7DEB7CA1BDB0B0FB6F894DEBF0FBEEA
:10077000CDBF09942A88398848885F846E847D8437
:100780008C849B84AA84B984C884DF80EE80FD8039
:100790000C811B81AA81B981CE0FD11D0FB6F894AF
:0E07A000DEBF0FBECDBFED010895F894FFCF70
:1007AE004F7363696C6C6F73636F70650A00416E93
:1007BE00616C6F672076616C75653D25640A00007B
:00000001FF
