:100000000C9434000C9451000C9451000C94510049
:100010000C9451000C9451000C9451000C9451001C
:100020000C9451000C9451000C9451000C9451000C
:100030000C9451000C9451000C9451000C945100FC
:100040000C9451000C9451000C9451000C945100EC
:100050000C9451000C9451000C9451000C945100DC
:100060000C9451000C94510011241FBECFEFD8E026
:10007000DEBFCDBF11E0A0E0B1E0EEEFF1E002C0E5
:1000800005900D92AE30B107D9F711E0AEE0B1E0C6
:1000900001C01D92A731B107E1F70E94AE000C9498
:1000A000FD000C940000EAE7F0E080818660808328
:1000B000ACE7B0E08C9180648C9380818068808311
:1000C000089590917C00907F90937C0090917C00AB
:1000D000982B90937C0080917A00806480937A00C2
:1000E00080917A0086FDFCCF2091780030917900D4
:1000F000C901089584B5836884BD85B5846085BDD4
:100100008FE787BD789408951092C50080E18093B1
:10011000C400E0ECF0E0808182608083E1ECF0E0FC
:10012000808188618083E2ECF0E08081866080835A
:100130000895982F8091C00085FFFCCF9093C60052
:100140000895FC0107C08091C00085FFFCCF90930B
:10015000C600319690819923B1F708951F93569A5E
:100160000E9453000E9484000E947A0080E091E087
:100170000E94A10017EF80E00E9461009093160199
:100180008093150181E00E946100382F80930E0159
:1001900090930F0110931001209115018091160189
:1001A0008093110120931201909313013093140155
:1001B0008091C00085FFFCCF1093C6009091110183
:1001C0008091C00085FFFCCF9093C60090911201F2
:1001D0008091C00085FFFCCF9093C60090911301E1
:1001E0008091C00085FFFCCF9093C6008091C00035
:0E01F00085FFFCCF3093C600BECFF894FFCF42
:0E01FE004F7363696C6C6F73636F70650A00FA
:00000001FF
